{
  "_format": "hh-sol-artifact-1",
  "contractName": "EpicNFT",
  "sourceName": "contracts/EpicNFT.sol",
  "abi": [
    {
      "inputs": [],
      "stateMutability": "nonpayable",
      "type": "constructor"
    },
    {
      "anonymous": false,
      "inputs": [
        {
          "indexed": true,
          "internalType": "address",
          "name": "owner",
          "type": "address"
        },
        {
          "indexed": true,
          "internalType": "address",
          "name": "approved",
          "type": "address"
        },
        {
          "indexed": true,
          "internalType": "uint256",
          "name": "tokenId",
          "type": "uint256"
        }
      ],
      "name": "Approval",
      "type": "event"
    },
    {
      "anonymous": false,
      "inputs": [
        {
          "indexed": true,
          "internalType": "address",
          "name": "owner",
          "type": "address"
        },
        {
          "indexed": true,
          "internalType": "address",
          "name": "operator",
          "type": "address"
        },
        {
          "indexed": false,
          "internalType": "bool",
          "name": "approved",
          "type": "bool"
        }
      ],
      "name": "ApprovalForAll",
      "type": "event"
    },
    {
      "anonymous": false,
      "inputs": [
        {
          "indexed": false,
          "internalType": "address",
          "name": "sender",
          "type": "address"
        },
        {
          "indexed": false,
          "internalType": "uint256",
          "name": "tokenId",
          "type": "uint256"
        }
      ],
      "name": "NewEpicNFTMinted",
      "type": "event"
    },
    {
      "anonymous": false,
      "inputs": [
        {
          "indexed": true,
          "internalType": "address",
          "name": "from",
          "type": "address"
        },
        {
          "indexed": true,
          "internalType": "address",
          "name": "to",
          "type": "address"
        },
        {
          "indexed": true,
          "internalType": "uint256",
          "name": "tokenId",
          "type": "uint256"
        }
      ],
      "name": "Transfer",
      "type": "event"
    },
    {
      "inputs": [
        {
          "internalType": "uint256",
          "name": "tokenId",
          "type": "uint256"
        }
      ],
      "name": "PickRandomFirstWord",
      "outputs": [
        {
          "internalType": "string",
          "name": "",
          "type": "string"
        }
      ],
      "stateMutability": "view",
      "type": "function"
    },
    {
      "inputs": [
        {
          "internalType": "uint256",
          "name": "tokenId",
          "type": "uint256"
        }
      ],
      "name": "PickRandomSecondWord",
      "outputs": [
        {
          "internalType": "string",
          "name": "",
          "type": "string"
        }
      ],
      "stateMutability": "view",
      "type": "function"
    },
    {
      "inputs": [
        {
          "internalType": "uint256",
          "name": "tokenId",
          "type": "uint256"
        }
      ],
      "name": "PickRandomThirdWord",
      "outputs": [
        {
          "internalType": "string",
          "name": "",
          "type": "string"
        }
      ],
      "stateMutability": "view",
      "type": "function"
    },
    {
      "inputs": [
        {
          "internalType": "address",
          "name": "to",
          "type": "address"
        },
        {
          "internalType": "uint256",
          "name": "tokenId",
          "type": "uint256"
        }
      ],
      "name": "approve",
      "outputs": [],
      "stateMutability": "nonpayable",
      "type": "function"
    },
    {
      "inputs": [
        {
          "internalType": "address",
          "name": "owner",
          "type": "address"
        }
      ],
      "name": "balanceOf",
      "outputs": [
        {
          "internalType": "uint256",
          "name": "",
          "type": "uint256"
        }
      ],
      "stateMutability": "view",
      "type": "function"
    },
    {
      "inputs": [
        {
          "internalType": "uint256",
          "name": "tokenId",
          "type": "uint256"
        }
      ],
      "name": "getApproved",
      "outputs": [
        {
          "internalType": "address",
          "name": "",
          "type": "address"
        }
      ],
      "stateMutability": "view",
      "type": "function"
    },
    {
      "inputs": [
        {
          "internalType": "address",
          "name": "owner",
          "type": "address"
        },
        {
          "internalType": "address",
          "name": "operator",
          "type": "address"
        }
      ],
      "name": "isApprovedForAll",
      "outputs": [
        {
          "internalType": "bool",
          "name": "",
          "type": "bool"
        }
      ],
      "stateMutability": "view",
      "type": "function"
    },
    {
      "inputs": [],
      "name": "makeEpicNFT",
      "outputs": [],
      "stateMutability": "nonpayable",
      "type": "function"
    },
    {
      "inputs": [],
      "name": "name",
      "outputs": [
        {
          "internalType": "string",
          "name": "",
          "type": "string"
        }
      ],
      "stateMutability": "view",
      "type": "function"
    },
    {
      "inputs": [
        {
          "internalType": "uint256",
          "name": "tokenId",
          "type": "uint256"
        }
      ],
      "name": "ownerOf",
      "outputs": [
        {
          "internalType": "address",
          "name": "",
          "type": "address"
        }
      ],
      "stateMutability": "view",
      "type": "function"
    },
    {
      "inputs": [
        {
          "internalType": "address",
          "name": "from",
          "type": "address"
        },
        {
          "internalType": "address",
          "name": "to",
          "type": "address"
        },
        {
          "internalType": "uint256",
          "name": "tokenId",
          "type": "uint256"
        }
      ],
      "name": "safeTransferFrom",
      "outputs": [],
      "stateMutability": "nonpayable",
      "type": "function"
    },
    {
      "inputs": [
        {
          "internalType": "address",
          "name": "from",
          "type": "address"
        },
        {
          "internalType": "address",
          "name": "to",
          "type": "address"
        },
        {
          "internalType": "uint256",
          "name": "tokenId",
          "type": "uint256"
        },
        {
          "internalType": "bytes",
          "name": "data",
          "type": "bytes"
        }
      ],
      "name": "safeTransferFrom",
      "outputs": [],
      "stateMutability": "nonpayable",
      "type": "function"
    },
    {
      "inputs": [
        {
          "internalType": "address",
          "name": "operator",
          "type": "address"
        },
        {
          "internalType": "bool",
          "name": "approved",
          "type": "bool"
        }
      ],
      "name": "setApprovalForAll",
      "outputs": [],
      "stateMutability": "nonpayable",
      "type": "function"
    },
    {
      "inputs": [
        {
          "internalType": "bytes4",
          "name": "interfaceId",
          "type": "bytes4"
        }
      ],
      "name": "supportsInterface",
      "outputs": [
        {
          "internalType": "bool",
          "name": "",
          "type": "bool"
        }
      ],
      "stateMutability": "view",
      "type": "function"
    },
    {
      "inputs": [],
      "name": "symbol",
      "outputs": [
        {
          "internalType": "string",
          "name": "",
          "type": "string"
        }
      ],
      "stateMutability": "view",
      "type": "function"
    },
    {
      "inputs": [
        {
          "internalType": "uint256",
          "name": "tokenId",
          "type": "uint256"
        }
      ],
      "name": "tokenURI",
      "outputs": [
        {
          "internalType": "string",
          "name": "",
          "type": "string"
        }
      ],
      "stateMutability": "view",
      "type": "function"
    },
    {
      "inputs": [
        {
          "internalType": "address",
          "name": "from",
          "type": "address"
        },
        {
          "internalType": "address",
          "name": "to",
          "type": "address"
        },
        {
          "internalType": "uint256",
          "name": "tokenId",
          "type": "uint256"
        }
      ],
      "name": "transferFrom",
      "outputs": [],
      "stateMutability": "nonpayable",
      "type": "function"
    }
  ],
  "bytecode": "0x60806040526040518061028001604052806040518060400160405280600481526020017f6c6577640000000000000000000000000000000000000000000000000000000081525081526020016040518060400160405280600481526020017f6c616d650000000000000000000000000000000000000000000000000000000081525081526020016040518060400160405280600481526020017f7265616c0000000000000000000000000000000000000000000000000000000081525081526020016040518060400160405280600c81526020017f72616d62756e6374696f7573000000000000000000000000000000000000000081525081526020016040518060400160405280600a81526020017f66756e6374696f6e616c0000000000000000000000000000000000000000000081525081526020016040518060400160405280600981526020017f736869766572696e67000000000000000000000000000000000000000000000081525081526020016040518060400160405280600b81526020017f696e74656c6c6967656e7400000000000000000000000000000000000000000081525081526020016040518060400160405280600581526020017f637275656c00000000000000000000000000000000000000000000000000000081525081526020016040518060400160405280600881526020017f646964616374696300000000000000000000000000000000000000000000000081525081526020016040518060400160405280600d81526020017f736f70686973746963617465640000000000000000000000000000000000000081525081526020016040518060400160405280600981526020017f6f7665727261746564000000000000000000000000000000000000000000000081525081526020016040518060400160405280600381526020017f6c6f77000000000000000000000000000000000000000000000000000000000081525081526020016040518060400160405280600781526020017f68616e67696e670000000000000000000000000000000000000000000000000081525081526020016040518060400160405280600581526020017f677265617400000000000000000000000000000000000000000000000000000081525081526020016040518060400160405280600581526020017f7368616b7900000000000000000000000000000000000000000000000000000081525081526020016040518060400160405280600981526020017f64616e6765726f7573000000000000000000000000000000000000000000000081525081526020016040518060400160405280600881526020017f616c6c7572696e6700000000000000000000000000000000000000000000000081525081526020016040518060400160405280600681526020017f636172696e67000000000000000000000000000000000000000000000000000081525081526020016040518060400160405280600881526020017f6465636f726f757300000000000000000000000000000000000000000000000081525081526020016040518060400160405280600681526020017f746f7270696400000000000000000000000000000000000000000000000000008152508152506008906014620004bc9291906200102f565b506040518061028001604052806040518060400160405280600481526020017f666c61740000000000000000000000000000000000000000000000000000000081525081526020016040518060400160405280600581526020017f746173747900000000000000000000000000000000000000000000000000000081525081526020016040518060400160405280600881526020017f6e6562756c6f757300000000000000000000000000000000000000000000000081525081526020016040518060400160405280600581526020017f656c66696e00000000000000000000000000000000000000000000000000000081525081526020016040518060400160405280600981526020017f77616e646572696e67000000000000000000000000000000000000000000000081525081526020016040518060400160405280600781526020017f707269766174650000000000000000000000000000000000000000000000000081525081526020016040518060400160405280600881526020017f726f6d616e74696300000000000000000000000000000000000000000000000081525081526020016040518060400160405280600881526020017f6578756c74616e7400000000000000000000000000000000000000000000000081525081526020016040518060400160405280600681526020017f6661756c7479000000000000000000000000000000000000000000000000000081525081526020016040518060400160405280600681526020017f7374696e6779000000000000000000000000000000000000000000000000000081525081526020016040518060400160405280600781526020017f70757a7a6c65640000000000000000000000000000000000000000000000000081525081526020016040518060400160405280600981526020017f7669766163696f7573000000000000000000000000000000000000000000000081525081526020016040518060400160405280600981526020017f7768696d736963616c000000000000000000000000000000000000000000000081525081526020016040518060400160405280600581526020017f7461626f6f00000000000000000000000000000000000000000000000000000081525081526020016040518060400160405280600681526020017f676966746564000000000000000000000000000000000000000000000000000081525081526020016040518060400160405280600581526020017f6c79696e6700000000000000000000000000000000000000000000000000000081525081526020016040518060400160405280600481526020017f687567650000000000000000000000000000000000000000000000000000000081525081526020016040518060400160405280600b81526020017f656475636174696f6e616c00000000000000000000000000000000000000000081525081526020016040518060400160405280600481526020017f616369640000000000000000000000000000000000000000000000000000000081525081526020016040518060400160405280600781526020017f7365766572616c000000000000000000000000000000000000000000000000008152508152506009906014620009759291906200102f565b506040518061028001604052806040518060400160405280600481526020017f706f656d0000000000000000000000000000000000000000000000000000000081525081526020016040518060400160405280600b81526020017f706572666f726d616e636500000000000000000000000000000000000000000081525081526020016040518060400160405280600581526020017f7069616e6f00000000000000000000000000000000000000000000000000000081525081526020016040518060400160405280600b81526020017f636f6d62696e6174696f6e00000000000000000000000000000000000000000081525081526020016040518060400160405280600481526020017f6d6f6f640000000000000000000000000000000000000000000000000000000081525081526020016040518060400160405280600a81526020017f6c6974657261747572650000000000000000000000000000000000000000000081525081526020016040518060400160405280600981526020017f6b6e6f776c65646765000000000000000000000000000000000000000000000081525081526020016040518060400160405280600b81526020017f6170706c69636174696f6e00000000000000000000000000000000000000000081525081526020016040518060400160405280600881526020017f616d626974696f6e00000000000000000000000000000000000000000000000081525081526020016040518060400160405280600681526020017f617370656374000000000000000000000000000000000000000000000000000081525081526020016040518060400160405280600481526020017f776966650000000000000000000000000000000000000000000000000000000081525081526020016040518060400160405280600581526020017f6472616d6100000000000000000000000000000000000000000000000000000081525081526020016040518060400160405280600781526020017f636c696d6174650000000000000000000000000000000000000000000000000081525081526020016040518060400160405280600781526020017f636f6e746578740000000000000000000000000000000000000000000000000081525081526020016040518060400160405280600a81526020017f70726f74656374696f6e0000000000000000000000000000000000000000000081525081526020016040518060400160405280600581526020017f717565656e00000000000000000000000000000000000000000000000000000081525081526020016040518060400160405280600781526020017f616972706f72740000000000000000000000000000000000000000000000000081525081526020016040518060400160405280600a81526020017f696e6469636174696f6e0000000000000000000000000000000000000000000081525081526020016040518060400160405280600781526020017f686967687761790000000000000000000000000000000000000000000000000081525081526020016040518060400160405280600581526020017f626c6f6f64000000000000000000000000000000000000000000000000000000815250815250600a90601462000e2e9291906200102f565b5060405180610160016040528061012f81526020016200492761012f9139600b908051906020019062000e6392919062001096565b5034801562000e7157600080fd5b506040518060400160405280600981526020017f5371756172654e465400000000000000000000000000000000000000000000008152506040518060400160405280600681526020017f5351554152450000000000000000000000000000000000000000000000000000815250816000908051906020019062000ef692919062001096565b50806001908051906020019062000f0f92919062001096565b50505062000f5d6040518060400160405280601e81526020017f54686973206973206d79204e465420636f6e74726163742e20576f616821000081525062000f6360201b62000fc21760201c565b620012e1565b620010038160405160240162000f7a919062001258565b6040516020818303038152906040527f41304fac000000000000000000000000000000000000000000000000000000007bffffffffffffffffffffffffffffffffffffffffffffffffffffffff19166020820180517bffffffffffffffffffffffffffffffffffffffffffffffffffffffff83818316178352505050506200100660201b60201c565b50565b60008151905060006a636f6e736f6c652e6c6f679050602083016000808483855afa5050505050565b82805482825590600052602060002090810192821562001083579160200282015b82811115620010825782518290805190602001906200107192919062001096565b509160200191906001019062001050565b5b50905062001092919062001127565b5090565b828054620010a490620012ab565b90600052602060002090601f016020900481019282620010c8576000855562001114565b82601f10620010e357805160ff191683800117855562001114565b8280016001018555821562001114579182015b8281111562001113578251825591602001919060010190620010f6565b5b5090506200112391906200114f565b5090565b5b808211156200114b57600081816200114191906200116e565b5060010162001128565b5090565b5b808211156200116a57600081600090555060010162001150565b5090565b5080546200117c90620012ab565b6000825580601f10620011905750620011b1565b601f016020900490600052602060002090810190620011b091906200114f565b5b50565b600081519050919050565b600082825260208201905092915050565b60005b83811015620011f0578082015181840152602081019050620011d3565b8381111562001200576000848401525b50505050565b6000601f19601f8301169050919050565b60006200122482620011b4565b620012308185620011bf565b935062001242818560208601620011d0565b6200124d8162001206565b840191505092915050565b6000602082019050818103600083015262001274818462001217565b905092915050565b7f4e487b7100000000000000000000000000000000000000000000000000000000600052602260045260246000fd5b60006002820490506001821680620012c457607f821691505b60208210811415620012db57620012da6200127c565b5b50919050565b61363680620012f16000396000f3fe608060405234801561001057600080fd5b506004361061010b5760003560e01c806362b41f49116100a257806395d89b411161007157806395d89b41146102dc578063a22cb465146102fa578063b88d4fde14610316578063c87b56dd14610332578063e985e9c5146103625761010b565b806362b41f49146102425780636352211e1461024c57806370a082311461027c5780637d8b0bd7146102ac5761010b565b80630a2d92c6116100de5780630a2d92c6146101aa5780631bb92301146101da57806323b872dd1461020a57806342842e0e146102265761010b565b806301ffc9a71461011057806306fdde0314610140578063081812fc1461015e578063095ea7b31461018e575b600080fd5b61012a60048036038101906101259190612133565b610392565b604051610137919061217b565b60405180910390f35b610148610474565b604051610155919061222f565b60405180910390f35b61017860048036038101906101739190612287565b610506565b60405161018591906122f5565b60405180910390f35b6101a860048036038101906101a3919061233c565b61054c565b005b6101c460048036038101906101bf9190612287565b610664565b6040516101d1919061222f565b60405180910390f35b6101f460048036038101906101ef9190612287565b610758565b604051610201919061222f565b60405180910390f35b610224600480360381019061021f919061237c565b61084c565b005b610240600480360381019061023b919061237c565b6108ac565b005b61024a6108cc565b005b61026660048036038101906102619190612287565b610ab3565b60405161027391906122f5565b60405180910390f35b610296600480360381019061029191906123cf565b610b65565b6040516102a3919061240b565b60405180910390f35b6102c660048036038101906102c19190612287565b610c1d565b6040516102d3919061222f565b60405180910390f35b6102e4610d11565b6040516102f1919061222f565b60405180910390f35b610314600480360381019061030f9190612452565b610da3565b005b610330600480360381019061032b91906125c7565b610db9565b005b61034c60048036038101906103479190612287565b610e1b565b604051610359919061222f565b60405180910390f35b61037c6004803603810190610377919061264a565b610f2e565b604051610389919061217b565b60405180910390f35b60007f80ac58cd000000000000000000000000000000000000000000000000000000007bffffffffffffffffffffffffffffffffffffffffffffffffffffffff1916827bffffffffffffffffffffffffffffffffffffffffffffffffffffffff1916148061045d57507f5b5e139f000000000000000000000000000000000000000000000000000000007bffffffffffffffffffffffffffffffffffffffffffffffffffffffff1916827bffffffffffffffffffffffffffffffffffffffffffffffffffffffff1916145b8061046d575061046c8261105b565b5b9050919050565b606060008054610483906126b9565b80601f01602080910402602001604051908101604052809291908181526020018280546104af906126b9565b80156104fc5780601f106104d1576101008083540402835291602001916104fc565b820191906000526020600020905b8154815290600101906020018083116104df57829003601f168201915b5050505050905090565b6000610511826110c5565b6004600083815260200190815260200160002060009054906101000a900473ffffffffffffffffffffffffffffffffffffffff169050919050565b600061055782610ab3565b90508073ffffffffffffffffffffffffffffffffffffffff168373ffffffffffffffffffffffffffffffffffffffff1614156105c8576040517f08c379a00000000000000000000000000000000000000000000000000000000081526004016105bf9061275d565b60405180910390fd5b8073ffffffffffffffffffffffffffffffffffffffff166105e7611110565b73ffffffffffffffffffffffffffffffffffffffff161480610616575061061581610610611110565b610f2e565b5b610655576040517f08c379a000000000000000000000000000000000000000000000000000000000815260040161064c906127ef565b60405180910390fd5b61065f8383611118565b505050565b60606000610698610674846111d1565b6040516020016106849190612897565b604051602081830303815290604052611332565b905060088080549050826106ac91906128e8565b815481106106bd576106bc612919565b5b9060005260206000200180546106d2906126b9565b80601f01602080910402602001604051908101604052809291908181526020018280546106fe906126b9565b801561074b5780601f106107205761010080835404028352916020019161074b565b820191906000526020600020905b81548152906001019060200180831161072e57829003601f168201915b5050505050915050919050565b6060600061078c610768846111d1565b6040516020016107789190612994565b604051602081830303815290604052611332565b9050600a8080549050826107a091906128e8565b815481106107b1576107b0612919565b5b9060005260206000200180546107c6906126b9565b80601f01602080910402602001604051908101604052809291908181526020018280546107f2906126b9565b801561083f5780601f106108145761010080835404028352916020019161083f565b820191906000526020600020905b81548152906001019060200180831161082257829003601f168201915b5050505050915050919050565b61085d610857611110565b82611365565b61089c576040517f08c379a000000000000000000000000000000000000000000000000000000000815260040161089390612a28565b60405180910390fd5b6108a78383836113fa565b505050565b6108c783838360405180602001604052806000815250610db9565b505050565b60006108d86007611661565b905060006108e582610664565b905060006108f283610c1d565b905060006108ff84610758565b9050600083838360405160200161091893929190612a48565b60405160208183030381529060405290506000600b8260405160200161093f929190612b59565b604051602081830303815290604052905060006109848361095f8461166f565b604051602001610970929190612cde565b60405160208183030381529060405261166f565b90506000816040516020016109999190612d6f565b60405160208183030381529060405290506109e86040518060400160405280601581526020017f0a2d2d2d2d2d2d2d2d2d2d2d2d2d2d2d2d2d2d2d2d0000000000000000000000815250610fc2565b6109f181610fc2565b610a2f6040518060400160405280601581526020017f2d2d2d2d2d2d2d2d2d2d2d2d2d2d2d2d2d2d2d2d0a0000000000000000000000815250610fc2565b610a393389611807565b610a438882611825565b610a4d6007611899565b7febb98688741ffa4c7589bf325de30cf7becb63de567842e1ccdb6cb949fdc82c3389604051610a7e929190612d91565b60405180910390a1610aa960405180606001604052806025815260200161359c6025913989336118af565b5050505050505050565b6000806002600084815260200190815260200160002060009054906101000a900473ffffffffffffffffffffffffffffffffffffffff169050600073ffffffffffffffffffffffffffffffffffffffff168173ffffffffffffffffffffffffffffffffffffffff161415610b5c576040517f08c379a0000000000000000000000000000000000000000000000000000000008152600401610b5390612e06565b60405180910390fd5b80915050919050565b60008073ffffffffffffffffffffffffffffffffffffffff168273ffffffffffffffffffffffffffffffffffffffff161415610bd6576040517f08c379a0000000000000000000000000000000000000000000000000000000008152600401610bcd90612e98565b60405180910390fd5b600360008373ffffffffffffffffffffffffffffffffffffffff1673ffffffffffffffffffffffffffffffffffffffff168152602001908152602001600020549050919050565b60606000610c51610c2d846111d1565b604051602001610c3d9190612f04565b604051602081830303815290604052611332565b90506009808054905082610c6591906128e8565b81548110610c7657610c75612919565b5b906000526020600020018054610c8b906126b9565b80601f0160208091040260200160405190810160405280929190818152602001828054610cb7906126b9565b8015610d045780601f10610cd957610100808354040283529160200191610d04565b820191906000526020600020905b815481529060010190602001808311610ce757829003601f168201915b5050505050915050919050565b606060018054610d20906126b9565b80601f0160208091040260200160405190810160405280929190818152602001828054610d4c906126b9565b8015610d995780601f10610d6e57610100808354040283529160200191610d99565b820191906000526020600020905b815481529060010190602001808311610d7c57829003601f168201915b5050505050905090565b610db5610dae611110565b838361194e565b5050565b610dca610dc4611110565b83611365565b610e09576040517f08c379a0000000000000000000000000000000000000000000000000000000008152600401610e0090612a28565b60405180910390fd5b610e1584848484611abb565b50505050565b6060610e26826110c5565b6000600660008481526020019081526020016000208054610e46906126b9565b80601f0160208091040260200160405190810160405280929190818152602001828054610e72906126b9565b8015610ebf5780601f10610e9457610100808354040283529160200191610ebf565b820191906000526020600020905b815481529060010190602001808311610ea257829003601f168201915b505050505090506000610ed0611b17565b9050600081511415610ee6578192505050610f29565b600082511115610f1b578082604051602001610f03929190612f26565b60405160208183030381529060405292505050610f29565b610f2484611b2e565b925050505b919050565b6000600560008473ffffffffffffffffffffffffffffffffffffffff1673ffffffffffffffffffffffffffffffffffffffff16815260200190815260200160002060008373ffffffffffffffffffffffffffffffffffffffff1673ffffffffffffffffffffffffffffffffffffffff16815260200190815260200160002060009054906101000a900460ff16905092915050565b61105881604051602401610fd6919061222f565b6040516020818303038152906040527f41304fac000000000000000000000000000000000000000000000000000000007bffffffffffffffffffffffffffffffffffffffffffffffffffffffff19166020820180517bffffffffffffffffffffffffffffffffffffffffffffffffffffffff8381831617835250505050611b96565b50565b60007f01ffc9a7000000000000000000000000000000000000000000000000000000007bffffffffffffffffffffffffffffffffffffffffffffffffffffffff1916827bffffffffffffffffffffffffffffffffffffffffffffffffffffffff1916149050919050565b6110ce81611bbf565b61110d576040517f08c379a000000000000000000000000000000000000000000000000000000000815260040161110490612e06565b60405180910390fd5b50565b600033905090565b816004600083815260200190815260200160002060006101000a81548173ffffffffffffffffffffffffffffffffffffffff021916908373ffffffffffffffffffffffffffffffffffffffff160217905550808273ffffffffffffffffffffffffffffffffffffffff1661118b83610ab3565b73ffffffffffffffffffffffffffffffffffffffff167f8c5be1e5ebec7d5bd14f71427d1e84f3dd0314c0f7b2291e5b200ac8c7c3b92560405160405180910390a45050565b60606000821415611219576040518060400160405280600181526020017f3000000000000000000000000000000000000000000000000000000000000000815250905061132d565b600082905060005b6000821461124b57808061123490612f79565b915050600a826112449190612fc2565b9150611221565b60008167ffffffffffffffff8111156112675761126661249c565b5b6040519080825280601f01601f1916602001820160405280156112995781602001600182028036833780820191505090505b5090505b60008514611326576001826112b29190612ff3565b9150600a856112c191906128e8565b60306112cd9190613027565b60f81b8183815181106112e3576112e2612919565b5b60200101907effffffffffffffffffffffffffffffffffffffffffffffffffffffffffffff1916908160001a905350600a8561131f9190612fc2565b945061129d565b8093505050505b919050565b600081604051602001611345919061307d565b6040516020818303038152906040528051906020012060001c9050919050565b60008061137183610ab3565b90508073ffffffffffffffffffffffffffffffffffffffff168473ffffffffffffffffffffffffffffffffffffffff1614806113b357506113b28185610f2e565b5b806113f157508373ffffffffffffffffffffffffffffffffffffffff166113d984610506565b73ffffffffffffffffffffffffffffffffffffffff16145b91505092915050565b8273ffffffffffffffffffffffffffffffffffffffff1661141a82610ab3565b73ffffffffffffffffffffffffffffffffffffffff1614611470576040517f08c379a000000000000000000000000000000000000000000000000000000000815260040161146790613106565b60405180910390fd5b600073ffffffffffffffffffffffffffffffffffffffff168273ffffffffffffffffffffffffffffffffffffffff1614156114e0576040517f08c379a00000000000000000000000000000000000000000000000000000000081526004016114d790613198565b60405180910390fd5b6114eb838383611c2b565b6114f6600082611118565b6001600360008573ffffffffffffffffffffffffffffffffffffffff1673ffffffffffffffffffffffffffffffffffffffff16815260200190815260200160002060008282546115469190612ff3565b925050819055506001600360008473ffffffffffffffffffffffffffffffffffffffff1673ffffffffffffffffffffffffffffffffffffffff168152602001908152602001600020600082825461159d9190613027565b92505081905550816002600083815260200190815260200160002060006101000a81548173ffffffffffffffffffffffffffffffffffffffff021916908373ffffffffffffffffffffffffffffffffffffffff160217905550808273ffffffffffffffffffffffffffffffffffffffff168473ffffffffffffffffffffffffffffffffffffffff167fddf252ad1be2c89b69c2b068fc378daa952ba7f163c4a11628f55a4df523b3ef60405160405180910390a461165c838383611c30565b505050565b600081600001549050919050565b606060008251905060008114156116985760405180602001604052806000815250915050611802565b600060036002836116a99190613027565b6116b39190612fc2565b60046116bf91906131b8565b905060006020826116d09190613027565b67ffffffffffffffff8111156116e9576116e861249c565b5b6040519080825280601f01601f19166020018201604052801561171b5781602001600182028036833780820191505090505b50905060006040518060600160405280604081526020016135c1604091399050600181016020830160005b868110156117bf5760038101905062ffffff818a015116603f8160121c168401518060081b905060ff603f83600c1c1686015116810190508060081b905060ff603f8360061c1686015116810190508060081b905060ff603f831686015116810190508060e01b90508084526004840193505050611746565b5060038606600181146117d957600281146117e9576117f4565b613d3d60f01b60028303526117f4565b603d60f81b60018303525b508484525050819450505050505b919050565b611821828260405180602001604052806000815250611c35565b5050565b61182e82611bbf565b61186d576040517f08c379a000000000000000000000000000000000000000000000000000000000815260040161186490613284565b60405180910390fd5b80600660008481526020019081526020016000209080519060200190611894929190612024565b505050565b6001816000016000828254019250508190555050565b6119498383836040516024016118c7939291906132a4565b6040516020818303038152906040527fe3849f79000000000000000000000000000000000000000000000000000000007bffffffffffffffffffffffffffffffffffffffffffffffffffffffff19166020820180517bffffffffffffffffffffffffffffffffffffffffffffffffffffffff8381831617835250505050611b96565b505050565b8173ffffffffffffffffffffffffffffffffffffffff168373ffffffffffffffffffffffffffffffffffffffff1614156119bd576040517f08c379a00000000000000000000000000000000000000000000000000000000081526004016119b49061332e565b60405180910390fd5b80600560008573ffffffffffffffffffffffffffffffffffffffff1673ffffffffffffffffffffffffffffffffffffffff16815260200190815260200160002060008473ffffffffffffffffffffffffffffffffffffffff1673ffffffffffffffffffffffffffffffffffffffff16815260200190815260200160002060006101000a81548160ff0219169083151502179055508173ffffffffffffffffffffffffffffffffffffffff168373ffffffffffffffffffffffffffffffffffffffff167f17307eab39ab6107e8899845ad3d59bd9653f200f220920489ca2b5937696c3183604051611aae919061217b565b60405180910390a3505050565b611ac68484846113fa565b611ad284848484611c90565b611b11576040517f08c379a0000000000000000000000000000000000000000000000000000000008152600401611b08906133c0565b60405180910390fd5b50505050565b606060405180602001604052806000815250905090565b6060611b39826110c5565b6000611b43611b17565b90506000815111611b635760405180602001604052806000815250611b8e565b80611b6d846111d1565b604051602001611b7e929190612f26565b6040516020818303038152906040525b915050919050565b60008151905060006a636f6e736f6c652e6c6f679050602083016000808483855afa5050505050565b60008073ffffffffffffffffffffffffffffffffffffffff166002600084815260200190815260200160002060009054906101000a900473ffffffffffffffffffffffffffffffffffffffff1673ffffffffffffffffffffffffffffffffffffffff1614159050919050565b505050565b505050565b611c3f8383611e27565b611c4c6000848484611c90565b611c8b576040517f08c379a0000000000000000000000000000000000000000000000000000000008152600401611c82906133c0565b60405180910390fd5b505050565b6000611cb18473ffffffffffffffffffffffffffffffffffffffff16612001565b15611e1a578373ffffffffffffffffffffffffffffffffffffffff1663150b7a02611cda611110565b8786866040518563ffffffff1660e01b8152600401611cfc9493929190613435565b602060405180830381600087803b158015611d1657600080fd5b505af1925050508015611d4757506040513d601f19601f82011682018060405250810190611d449190613496565b60015b611dca573d8060008114611d77576040519150601f19603f3d011682016040523d82523d6000602084013e611d7c565b606091505b50600081511415611dc2576040517f08c379a0000000000000000000000000000000000000000000000000000000008152600401611db9906133c0565b60405180910390fd5b805181602001fd5b63150b7a0260e01b7bffffffffffffffffffffffffffffffffffffffffffffffffffffffff1916817bffffffffffffffffffffffffffffffffffffffffffffffffffffffff191614915050611e1f565b600190505b949350505050565b600073ffffffffffffffffffffffffffffffffffffffff168273ffffffffffffffffffffffffffffffffffffffff161415611e97576040517f08c379a0000000000000000000000000000000000000000000000000000000008152600401611e8e9061350f565b60405180910390fd5b611ea081611bbf565b15611ee0576040517f08c379a0000000000000000000000000000000000000000000000000000000008152600401611ed79061357b565b60405180910390fd5b611eec60008383611c2b565b6001600360008473ffffffffffffffffffffffffffffffffffffffff1673ffffffffffffffffffffffffffffffffffffffff1681526020019081526020016000206000828254611f3c9190613027565b92505081905550816002600083815260200190815260200160002060006101000a81548173ffffffffffffffffffffffffffffffffffffffff021916908373ffffffffffffffffffffffffffffffffffffffff160217905550808273ffffffffffffffffffffffffffffffffffffffff16600073ffffffffffffffffffffffffffffffffffffffff167fddf252ad1be2c89b69c2b068fc378daa952ba7f163c4a11628f55a4df523b3ef60405160405180910390a4611ffd60008383611c30565b5050565b6000808273ffffffffffffffffffffffffffffffffffffffff163b119050919050565b828054612030906126b9565b90600052602060002090601f0160209004810192826120525760008555612099565b82601f1061206b57805160ff1916838001178555612099565b82800160010185558215612099579182015b8281111561209857825182559160200191906001019061207d565b5b5090506120a691906120aa565b5090565b5b808211156120c35760008160009055506001016120ab565b5090565b6000604051905090565b600080fd5b600080fd5b60007fffffffff0000000000000000000000000000000000000000000000000000000082169050919050565b612110816120db565b811461211b57600080fd5b50565b60008135905061212d81612107565b92915050565b600060208284031215612149576121486120d1565b5b60006121578482850161211e565b91505092915050565b60008115159050919050565b61217581612160565b82525050565b6000602082019050612190600083018461216c565b92915050565b600081519050919050565b600082825260208201905092915050565b60005b838110156121d05780820151818401526020810190506121b5565b838111156121df576000848401525b50505050565b6000601f19601f8301169050919050565b600061220182612196565b61220b81856121a1565b935061221b8185602086016121b2565b612224816121e5565b840191505092915050565b6000602082019050818103600083015261224981846121f6565b905092915050565b6000819050919050565b61226481612251565b811461226f57600080fd5b50565b6000813590506122818161225b565b92915050565b60006020828403121561229d5761229c6120d1565b5b60006122ab84828501612272565b91505092915050565b600073ffffffffffffffffffffffffffffffffffffffff82169050919050565b60006122df826122b4565b9050919050565b6122ef816122d4565b82525050565b600060208201905061230a60008301846122e6565b92915050565b612319816122d4565b811461232457600080fd5b50565b60008135905061233681612310565b92915050565b60008060408385031215612353576123526120d1565b5b600061236185828601612327565b925050602061237285828601612272565b9150509250929050565b600080600060608486031215612395576123946120d1565b5b60006123a386828701612327565b93505060206123b486828701612327565b92505060406123c586828701612272565b9150509250925092565b6000602082840312156123e5576123e46120d1565b5b60006123f384828501612327565b91505092915050565b61240581612251565b82525050565b600060208201905061242060008301846123fc565b92915050565b61242f81612160565b811461243a57600080fd5b50565b60008135905061244c81612426565b92915050565b60008060408385031215612469576124686120d1565b5b600061247785828601612327565b92505060206124888582860161243d565b9150509250929050565b600080fd5b600080fd5b7f4e487b7100000000000000000000000000000000000000000000000000000000600052604160045260246000fd5b6124d4826121e5565b810181811067ffffffffffffffff821117156124f3576124f261249c565b5b80604052505050565b60006125066120c7565b905061251282826124cb565b919050565b600067ffffffffffffffff8211156125325761253161249c565b5b61253b826121e5565b9050602081019050919050565b82818337600083830152505050565b600061256a61256584612517565b6124fc565b90508281526020810184848401111561258657612585612497565b5b612591848285612548565b509392505050565b600082601f8301126125ae576125ad612492565b5b81356125be848260208601612557565b91505092915050565b600080600080608085870312156125e1576125e06120d1565b5b60006125ef87828801612327565b945050602061260087828801612327565b935050604061261187828801612272565b925050606085013567ffffffffffffffff811115612632576126316120d6565b5b61263e87828801612599565b91505092959194509250565b60008060408385031215612661576126606120d1565b5b600061266f85828601612327565b925050602061268085828601612327565b9150509250929050565b7f4e487b7100000000000000000000000000000000000000000000000000000000600052602260045260246000fd5b600060028204905060018216806126d157607f821691505b602082108114156126e5576126e461268a565b5b50919050565b7f4552433732313a20617070726f76616c20746f2063757272656e74206f776e6560008201527f7200000000000000000000000000000000000000000000000000000000000000602082015250565b60006127476021836121a1565b9150612752826126eb565b604082019050919050565b600060208201905081810360008301526127768161273a565b9050919050565b7f4552433732313a20617070726f76652063616c6c6572206973206e6f7420746f60008201527f6b656e206f776e6572206e6f7220617070726f76656420666f7220616c6c0000602082015250565b60006127d9603e836121a1565b91506127e48261277d565b604082019050919050565b60006020820190508181036000830152612808816127cc565b9050919050565b600081905092915050565b7f46495253545f574f524400000000000000000000000000000000000000000000600082015250565b6000612850600a8361280f565b915061285b8261281a565b600a82019050919050565b600061287182612196565b61287b818561280f565b935061288b8185602086016121b2565b80840191505092915050565b60006128a282612843565b91506128ae8284612866565b915081905092915050565b7f4e487b7100000000000000000000000000000000000000000000000000000000600052601260045260246000fd5b60006128f382612251565b91506128fe83612251565b92508261290e5761290d6128b9565b5b828206905092915050565b7f4e487b7100000000000000000000000000000000000000000000000000000000600052603260045260246000fd5b7f54484952445f574f524400000000000000000000000000000000000000000000600082015250565b600061297e600a8361280f565b915061298982612948565b600a82019050919050565b600061299f82612971565b91506129ab8284612866565b915081905092915050565b7f4552433732313a2063616c6c6572206973206e6f7420746f6b656e206f776e6560008201527f72206e6f7220617070726f766564000000000000000000000000000000000000602082015250565b6000612a12602e836121a1565b9150612a1d826129b6565b604082019050919050565b60006020820190508181036000830152612a4181612a05565b9050919050565b6000612a548286612866565b9150612a608285612866565b9150612a6c8284612866565b9150819050949350505050565b60008190508160005260206000209050919050565b60008154612a9b816126b9565b612aa5818661280f565b94506001821660008114612ac05760018114612ad157612b04565b60ff19831686528186019350612b04565b612ada85612a79565b60005b83811015612afc57815481890152600182019150602081019050612add565b838801955050505b50505092915050565b7f3c2f746578743e3c2f7376673e00000000000000000000000000000000000000600082015250565b6000612b43600d8361280f565b9150612b4e82612b0d565b600d82019050919050565b6000612b658285612a8e565b9150612b718284612866565b9150612b7c82612b36565b91508190509392505050565b7f7b226e616d65223a202200000000000000000000000000000000000000000000600082015250565b6000612bbe600a8361280f565b9150612bc982612b88565b600a82019050919050565b7f222c20226465736372697074696f6e223a20224120686967686c79206163636c60008201527f61696d656420636f6c6c656374696f6e206f6620737175617265732e222c202260208201527f696d616765223a2022646174613a696d6167652f7376672b786d6c3b6261736560408201527f36342c0000000000000000000000000000000000000000000000000000000000606082015250565b6000612c7c60638361280f565b9150612c8782612bd4565b606382019050919050565b7f227d000000000000000000000000000000000000000000000000000000000000600082015250565b6000612cc860028361280f565b9150612cd382612c92565b600282019050919050565b6000612ce982612bb1565b9150612cf58285612866565b9150612d0082612c6f565b9150612d0c8284612866565b9150612d1782612cbb565b91508190509392505050565b7f646174613a6170706c69636174696f6e2f6a736f6e3b6261736536342c000000600082015250565b6000612d59601d8361280f565b9150612d6482612d23565b601d82019050919050565b6000612d7a82612d4c565b9150612d868284612866565b915081905092915050565b6000604082019050612da660008301856122e6565b612db360208301846123fc565b9392505050565b7f4552433732313a20696e76616c696420746f6b656e2049440000000000000000600082015250565b6000612df06018836121a1565b9150612dfb82612dba565b602082019050919050565b60006020820190508181036000830152612e1f81612de3565b9050919050565b7f4552433732313a2061646472657373207a65726f206973206e6f74206120766160008201527f6c6964206f776e65720000000000000000000000000000000000000000000000602082015250565b6000612e826029836121a1565b9150612e8d82612e26565b604082019050919050565b60006020820190508181036000830152612eb181612e75565b9050919050565b7f5345434f4e445f574f5244000000000000000000000000000000000000000000600082015250565b6000612eee600b8361280f565b9150612ef982612eb8565b600b82019050919050565b6000612f0f82612ee1565b9150612f1b8284612866565b915081905092915050565b6000612f328285612866565b9150612f3e8284612866565b91508190509392505050565b7f4e487b7100000000000000000000000000000000000000000000000000000000600052601160045260246000fd5b6000612f8482612251565b91507fffffffffffffffffffffffffffffffffffffffffffffffffffffffffffffffff821415612fb757612fb6612f4a565b5b600182019050919050565b6000612fcd82612251565b9150612fd883612251565b925082612fe857612fe76128b9565b5b828204905092915050565b6000612ffe82612251565b915061300983612251565b92508282101561301c5761301b612f4a565b5b828203905092915050565b600061303282612251565b915061303d83612251565b9250827fffffffffffffffffffffffffffffffffffffffffffffffffffffffffffffffff0382111561307257613071612f4a565b5b828201905092915050565b60006130898284612866565b915081905092915050565b7f4552433732313a207472616e736665722066726f6d20696e636f72726563742060008201527f6f776e6572000000000000000000000000000000000000000000000000000000602082015250565b60006130f06025836121a1565b91506130fb82613094565b604082019050919050565b6000602082019050818103600083015261311f816130e3565b9050919050565b7f4552433732313a207472616e7366657220746f20746865207a65726f2061646460008201527f7265737300000000000000000000000000000000000000000000000000000000602082015250565b60006131826024836121a1565b915061318d82613126565b604082019050919050565b600060208201905081810360008301526131b181613175565b9050919050565b60006131c382612251565b91506131ce83612251565b9250817fffffffffffffffffffffffffffffffffffffffffffffffffffffffffffffffff048311821515161561320757613206612f4a565b5b828202905092915050565b7f45524337323155524953746f726167653a2055524920736574206f66206e6f6e60008201527f6578697374656e7420746f6b656e000000000000000000000000000000000000602082015250565b600061326e602e836121a1565b915061327982613212565b604082019050919050565b6000602082019050818103600083015261329d81613261565b9050919050565b600060608201905081810360008301526132be81866121f6565b90506132cd60208301856123fc565b6132da60408301846122e6565b949350505050565b7f4552433732313a20617070726f766520746f2063616c6c657200000000000000600082015250565b60006133186019836121a1565b9150613323826132e2565b602082019050919050565b600060208201905081810360008301526133478161330b565b9050919050565b7f4552433732313a207472616e7366657220746f206e6f6e20455243373231526560008201527f63656976657220696d706c656d656e7465720000000000000000000000000000602082015250565b60006133aa6032836121a1565b91506133b58261334e565b604082019050919050565b600060208201905081810360008301526133d98161339d565b9050919050565b600081519050919050565b600082825260208201905092915050565b6000613407826133e0565b61341181856133eb565b93506134218185602086016121b2565b61342a816121e5565b840191505092915050565b600060808201905061344a60008301876122e6565b61345760208301866122e6565b61346460408301856123fc565b818103606083015261347681846133fc565b905095945050505050565b60008151905061349081612107565b92915050565b6000602082840312156134ac576134ab6120d1565b5b60006134ba84828501613481565b91505092915050565b7f4552433732313a206d696e7420746f20746865207a65726f2061646472657373600082015250565b60006134f96020836121a1565b9150613504826134c3565b602082019050919050565b60006020820190508181036000830152613528816134ec565b9050919050565b7f4552433732313a20746f6b656e20616c7265616479206d696e74656400000000600082015250565b6000613565601c836121a1565b91506135708261352f565b602082019050919050565b6000602082019050818103600083015261359481613558565b905091905056fe416e204e465420772f20494420257320686173206265656e206d696e74656420746f2025734142434445464748494a4b4c4d4e4f505152535455565758595a6162636465666768696a6b6c6d6e6f707172737475767778797a303132333435363738392b2fa264697066735822122050002baa21c96e8cd431bb957f1af9909a226e8169dff1152b78b5346e5d479664736f6c634300080900333c73766720786d6c6e733d27687474703a2f2f7777772e77332e6f72672f323030302f73766727207072657365727665417370656374526174696f3d27784d696e594d696e206d656574272076696577426f783d273020302033353020333530273e3c7374796c653e2e62617365207b2066696c6c3a2077686974653b20666f6e742d66616d696c793a2073657269663b20666f6e742d73697a653a20323470783b207d3c2f7374796c653e3c726563742077696474683d273130302527206865696768743d2731303025272066696c6c3d27626c61636b27202f3e3c7465787420783d273530252720793d273530252720636c6173733d27626173652720646f6d696e616e742d626173656c696e653d276d6964646c652720746578742d616e63686f723d276d6964646c65273e",
  "linkReferences": {},
  "deployedLinkReferences": {}
}